:100000000C9462000C948A000C948A000C948A0070
:100010000C948A000C948A000C948A000C948A0038
:100020000C948A000C948A000C948A000C948A0028
:100030000C948A000C948A000C948A000C948A0018
:100040000C940F030C948A000C948A000C948A0080
:100050000C948A000C948A000C948A000C948A00F8
:100060000C948A000C948A000000000023002600F3
:10007000290000000000240027002A0000000000E2
:10008000250028002B0004040404040404040202D4
:100090000202020203030303030301020408102007
:1000A0004080010204081020010204081020000012
:1000B0000008000201000003040700000000000027
:1000C0000000D80411241FBECFEFD8E0DEBFCDBFA3
:1000D00011E0A0E0B1E0ECEAFCE002C005900D9276
:1000E000AE34B107D9F721E0AEE4B1E001C01D9212
:1000F000A337B207E1F710E0C2E6D0E004C02197D1
:10010000FE010E944906C136D107C9F70E949E032D
:100110000C9454060C94000090E0FC01E255FF4F53
:100120002491FC01E656FF4F3491FC01EA57FF4F42
:10013000E491EE2309F43CC0222339F1233091F0FD
:1001400038F42130A9F0223001F584B58F7D12C03A
:10015000273091F02830A1F02430B9F4809180004C
:100160008F7D03C0809180008F77809380000DC0C9
:1001700084B58F7784BD09C08091B0008F7703C0AC
:100180008091B0008F7D8093B000F0E0EE0FFF1FF4
:10019000E458FF4FA591B4919FB7F894611104C042
:1001A0008C913095382302C0EC913E2B3C939FBF3D
:1001B0000895CF93DF9390E0FC01E656FF4F249122
:1001C000FC01EA57FF4F8491882361F190E0880F8A
:1001D000991FFC01EE58FF4FC591D491FC01E458E2
:1001E000FF4FA591B491611109C09FB7F894888120
:1001F000209582238883EC912E230BC0623061F41A
:100200009FB7F8948881322F309583238883EC91AF
:100210002E2B2C939FBF06C08FB7F894E8812E2B0E
:1002200028838FBFDF91CF9108953FB7F8948091D5
:10023000570190915801A0915901B0915A0126B5EA
:10024000A89B05C02F3F19F00196A11DB11D3FBF0E
:10025000BA2FA92F982F8827820F911DA11DB11D9C
:10026000BC01CD0142E0660F771F881F991F4A9598
:10027000D1F708958F929F92AF92BF92CF92DF9263
:10028000EF92FF926B017C010E9415014B015C0112
:10029000C114D104E104F104F1F00E941501DC0164
:1002A000CB0188199909AA09BB09883E9340A10589
:1002B000B10570F321E0C21AD108E108F10888EE17
:1002C000880E83E0981EA11CB11CC114D104E10466
:1002D000F10419F7DDCFFF90EF90DF90CF90BF9042
:1002E000AF909F908F900895CF92DF92EF92FF9200
:1002F0000F931F93CF93DF936C017A018B01C0E0C2
:10030000D0E0CE15DF0581F0D8016D918D01D601C9
:10031000ED91FC910190F081E02DC6010995892BAA
:1003200011F02196EECF7E01C701DF91CF911F9191
:100330000F91FF90EF90DF90CF900895CF93DF93D0
:10034000EC0160E08E810E948C0061E08E810E9451
:100350008C0060E08E810E948C008BE891E0019718
:10036000F1F7DF91CF910895CF92DF92EF92FF9254
:100370000F931F93CF93DF936C017C0187E0E80E0E
:10038000F11CC0E0D0E0062F10E0B8010C2E02C036
:10039000759567950A94E2F76170F70181917F0185
:1003A0000E948C002196C430D10579F7C601DF91F7
:1003B000CF911F910F91FF90EF90DF90CF900C9411
:1003C0009E01CF92DF92EF92FF920F931F93CF93F4
:1003D000DF93EC01F62E642F8C810E948C008D81BE
:1003E0008F3F19F060E00E948C008F850F2D10E088
:1003F00084FF25C06E0187E0C80ED11CE12CF12CD2
:10040000B8010E2C02C0759567950A94E2F76170E9
:10041000F60181916F010E948C00FFEFEF1AFF0A35
:1004200088E0E816F10461F7CE01DF91CF911F91CA
:100430000F91FF90EF90DF90CF900C949E01B80148
:1004400084E0759567958A95E1F7CE010E94B40125
:100450006F2DCE01DF91CF911F910F91FF90EF9003
:10046000DF90CF900C94B40140E0682F8BE591E0D1
:100470000C94E101CF93DF93823028F090916A01D0
:10048000986090936A0180936E0110926F0180E4EE
:100490008093700180E18093710180E58093720107
:1004A00061E080915F010E94D900809160018F3FDF
:1004B00019F061E00E94D90061E0809161010E9421
:1004C000D900CBE5D1E09E012B55314080916A01E6
:1004D00084FD03C084E090E002C088E090E02196B3
:1004E000281739072CF461E08E810E94D900EBCFE8
:1004F0008BE39DE00197F1F760E080915F010E943E
:100500008C0060E0809161010E948C00809160010C
:100510008F3F19F060E00E948C0080916A0184FD99
:1005200020C063E08BE591E00E94B401CBE4D6E407
:10053000CE010197F1F763E08BE591E00E94B401F1
:100540002197F1F763E08BE591E00E94B40183E528
:1005500092E00197F1F762E08BE591E00E94B4012F
:1005600015C080620E9434028BE496E40197F1F793
:1005700080916A0180620E94340283E592E00197D3
:10058000F1F780916A0180620E94340280916A01D1
:1005900080620E94340284E080936B018CE00E94B0
:1005A000340281E00E9434028BE39FE10197F1F76E
:1005B00082E080936C0186E0DF91CF910C9434024D
:1005C000843008F083E090916E01891710F08FEF6E
:1005D000890FE82FF0E0E55AFE4F848980680C947B
:1005E000340241E00E94E10181E090E00895089525
:1005F00080E090E00895009769F0FC0101900020F0
:10060000E9F73197AF01481B590BBC018BE591E02D
:100610000C94740180E090E008950E944F061F92B0
:100620000F920FB60F9211242F933F938F939F93A6
:10063000AF93BF938091530190915401A0915501C4
:10064000B09156013091520123E0230F2D3720F451
:100650000196A11DB11D05C026E8230F0296A11D1C
:10066000B11D209352018093530190935401A093A4
:100670005501B09356018091570190915801A09176
:100680005901B0915A010196A11DB11D80935701E6
:1006900090935801A0935901B0935A01BF91AF9123
:1006A0009F918F913F912F910F900FBE0F901F90B0
:1006B0001895CF92DF92EF92FF920F931F93E82F3E
:1006C000F92F05C0015011092109310961F190810B
:1006D00096239417B9F305C0015011092109310976
:1006E00011F1908196239413F7CFC12CD12CE12CDA
:1006F000F12C0AC08FEFC81AD80AE80AF80A0C15BC
:100700001D052E053F0579F080818623841791F31E
:100710006C2D7D2D8E2D9F2D1F910F91FF90EF90B1
:10072000DF90CF90089560E070E080E090E01F914E
:100730000F91FF90EF90DF90CF900895CF93DF93CC
:10074000CDB7DEB7A1970FB6F894DEBF0FBECDBF11
:10075000789484B5826084BD84B5816084BD85B59C
:10076000826085BD85B5816085BD80916E008160A8
:1007700080936E001092810080918100826080934E
:100780008100809181008160809381008091800050
:100790008160809380008091B10084608093B1007B
:1007A0008091B00081608093B00080917A00846075
:1007B00080937A0080917A00826080937A008091A1
:1007C0007A00816080937A0080917A0080688093BB
:1007D0007A001092C10082E00E943A0261E08CE04F
:1007E0000E94D90060E08BE00E94D90080E00E9466
:1007F000E0028CE091E00E94FB0281E00E94E002B6
:100800008CE191E00E94FB0260ED77E080E090E0F7
:100810000E943A0181E00E9434028BE39FE101973C
:10082000F1F723E0E22EF12C33E2C32ED12C4AE083
:10083000842E912CA12CB12C90E0292E90E0392E01
:1008400060E08CE00E948C00C7010197F1F761E045
:100850008CE00E948C00C6010197F1F760E08CE00B
:100860000E948C00E5EAF0E06491E1E9F0E0849117
:10087000E82FF0E0EE0FFF1FE859FF4F85919491AC
:1008800000E412E42FE030E0462F0E945903611586
:1008900071058105910549F0DC01CB010196A11D8F
:1008A000B11DBC01CD019F7003C060E070E0CB01C1
:1008B0000E942E0526E933E44BE05DE30E94920599
:1008C00020E030E040E05FE30E9492050E94F604E1
:1008D00060934E0170934F018093500190935101AA
:1008E00080E00E94E0028EE291E00E94FB026AE05A
:1008F00070E080E090E00E943A0181E00E94E00216
:100900008FE391E00E94FB0240904E0150904F0116
:10091000609050017090510177FE21C041E06DE27E
:100920008BE591E00E94E10122273327A9012419D8
:1009300035094609570919A2CE0181963C01CA0121
:10094000B901A50194010E942706605DF30162933D
:100950003F01211531054105510589F715C0A30156
:10096000920119A2CE0181963C01CA01B901A501EB
:1009700094010E942706605DF30162933F012115F7
:1009800031054105510589F7C3010E94FB0289E445
:1009900091E00E94FB026AE070E080E090E00E943B
:1009A0003A012114310409F44BCF0E94000044CFD6
:1009B000EBE5F1E01382128284E091E09183808381
:1009C00082E084838FEF858383E0868384E087835E
:1009D00085E0808786E0818787E08287138614869A
:1009E00015861686178681E00C943A020E94FD0453
:1009F0006894B1110C948C0508950E94710588F0DB
:100A00009F5798F0B92F9927B751B0F0E1F0660FD2
:100A1000771F881F991F1AF0BA95C9F714C0B13013
:100A200091F00E948B05B1E008950C948B05672F1F
:100A3000782F8827B85F39F0B93FCCF38695779542
:100A40006795B395D9F73EF490958095709561952B
:100A50007F4F8F4F9F4F0895E89409C097FB3EF456
:100A600090958095709561957F4F8F4F9F4F9923FB
:100A7000A9F0F92F96E9BB279395F6958795779579
:100A80006795B795F111F8CFFAF4BB0F11F460FF39
:100A90001BC06F5F7F4F8F4F9F4F16C0882311F091
:100AA00096E911C0772321F09EE8872F762F05C0A5
:100AB000662371F096E8862F70E060E02AF09A9540
:100AC000660F771F881FDAF7880F9695879597F935
:100AD000089557FD9058440F551F59F05F3F71F02E
:100AE0004795880F97FB991F61F09F3F79F0879595
:100AF0000895121613061406551FF2CF4695F1DF1E
:100B000008C0161617061806991FF1CF86957105AD
:100B1000610508940895E894BB2766277727CB01E1
:100B200097F908950E94A5050C9416060E940806E0
:100B300038F00E940F0620F0952311F00C94FF0569
:100B40000C94050611240C948C050E94690570F321
:100B5000959FC1F3950F50E0551F629FF001729F62
:100B6000BB27F00DB11D639FAA27F00DB11DAA1F71
:100B7000649F6627B00DA11D661F829F2227B00DBE
:100B8000A11D621F739FB00DA11D621F839FA00D49
:100B9000611D221F749F3327A00D611D231F849F99
:100BA000600D211D822F762F6A2F11249F575040F0
:100BB0009AF0F1F088234AF0EE0FFF1FBB1F661F6B
:100BC000771F881F91505040A9F79E3F510580F034
:100BD0000C94FF050C948C055F3FE4F3983ED4F32E
:100BE000869577956795B795F795E7959F5FC1F7D8
:100BF000FE2B880F911D9695879597F9089597F983
:100C00009F6780E870E060E008959FEF80EC0895B2
:100C100000240A94161617061806090608950024DB
:100C20000A9412161306140605060895092E039455
:100C3000000C11F4882352F0BB0F40F4BF2B11F4C9
:100C400060FF04C06F5F7F4F8F4F9F4F0895A1E2F9
:100C50001A2EAA1BBB1BFD010DC0AA1FBB1FEE1F36
:100C6000FF1FA217B307E407F50720F0A21BB30B81
:100C7000E40BF50B661F771F881F991F1A9469F7FD
:100C800060957095809590959B01AC01BD01CF0159
:100C90000895EE0FFF1F0590F491E02D099481E077
:0C0CA00090E0F8940C945406F894FFCFF8
:100CAC0000000000F1027401F802F702202020205D
:100CBC0044697374616E6365202020002020204DF0
:100CCC006561737572656D656E74202020004469D2
:100CDC007374616E6365204D65617375722E00448B
:0E0CEC00697374616E63653A00204F6E2000DC
:00000001FF
